:020000040800F2
:100000008006002091010008E90600088F0600081C
:10001000E506000821050008E30D000800000000C7
:10002000000000000000000000000000690A000855
:1000300025050008000000005D070008550B0008BA
:10004000AB010008AB010008AB010008AB010008E0
:10005000AB010008AB010008AB010008AB010008D0
:10006000AB010008AB010008AB010008AB010008C0
:10007000AB010008AB010008AB010008AB010008B0
:10008000AB010008AB010008AB010008AB010008A0
:10009000AB010008AB010008AB010008AB01000890
:1000A000AB010008AB010008AB010008AB01000880
:1000B000AB010008AB010008AB010008AB01000870
:1000C000AB010008AB010008AB010008AB01000860
:1000D000AB010008B90B0008AB010008AB01000838
:1000E000AB010008AB010008AB01000800F002F80A
:1000F00000F03FF80AA090E8000C82448344AAF183
:100100000107DA4501D100F034F8AFF2090EBAE880
:100110000F0013F0010F18BFFB1A43F0010318473B
:100120006C0E00008C0E0000103A24BF78C878C115
:10013000FAD8520724BF30C830C144BF04680C60ED
:10014000704700000023002400250026103A28BF35
:1001500078C1FBD8520728BF30C148BF0B60704739
:10016000632900F05781002070471FB51FBD10B5EF
:1001700010BD00F071F91146FFF7F7FF00F06EFEB9
:1001800000F08FF903B4FFF7F2FF03BC00F032FE7A
:100190000948804709480047FEE7FEE7FEE7FEE71B
:1001A000FEE7FEE7FEE7FEE7FEE7FEE70448054957
:1001B000054A064B70470000590B0008ED00000887
:1001C00080000020800600208002002080020020A5
:1001D000704700000FB4044910B503AA029800F05C
:1001E00025F910BC5DF814FB0000002070B50C462A
:1001F0000546012A05D02878800600D5EA69002343
:1002000002E0012305E05B1C934202D2E05C00287F
:10021000F9D1A869E618C01AA861286A18442862AA
:100220002846AFF3008004E0D5E9012114F8010B62
:100230009047B442F8D32846AFF3008070BD000069
:100240002DE9F05F894604464FF0000ADFF874B1EB
:10025000FB44C0F820A02046E1688847002874D0FD
:10026000252806D0D4E901219047206A401C20624D
:10027000F1E700265F462046E168884720280546CA
:1002800007DB312D05D2781910F8200C08B1064390
:10029000F1E7B00701D526F00406C4F81CA000273A
:1002A000C4F818A02A2D09D0284600F09CFD38B3C8
:1002B00004EB8708303DC8F8185019E059F8041BC2
:1002C000204604EB87029161E1688847012F0546CB
:1002D00018D1E069002820DA26F020061DE0D8F8C1
:1002E000180000EB800005EB40003038C8F818001B
:1002F0002046E1688847054600F075FD0028EED1EC
:10030000012F0AD02E2D08D12046E16888477F1C96
:100310000546022F46F02006C4DBA069002803DA58
:10032000404246F00106A061F00701D026F0100619
:100330006C2D0BD0682D09D04C2D39D06A2D35D0BD
:10034000742D35D07A2D33D016E038E0E1682F4691
:1003500020468847B842054609D16C2F26D04FF475
:100360008060E168064320468847054604E06C2F1C
:100370001AD04FF4807006430DB3A5F1410019283F
:1003800002D8203546F400664A46294620462660B3
:100390004E46FFF7E5FE80B101280BD0F61D26F092
:1003A000070000F1080956E74020E4E78020D8E77D
:1003B0000020D6E706F104094DE7284652E7206AF7
:1003C000BDE8F09F240D00007047704770477047EC
:1003D00001694A1C02610878704700B58FB0CDE909
:1003E00001310021059105497944CDE903101146F9
:1003F0006846FFF725FF0FB000BD0000E5FFFFFFD7
:1004000010B5436913B1AFF3008001E0FFF7EEFED2
:10041000012010BD127800F124010A7000224A70F8
:100420000122EDE711684FF0FF32E9E7074B70B5A5
:100430000D467B44FFF7D1FF0446284600F008F83C
:1004400010B14FF0FF3070BD204670BD0B0A0000A8
:10045000007B00F080007047754600F02BF8AE4638
:1004600005006946534620F00700854618B020B5C0
:10047000FFF79CFEBDE820404FF000064FF000075C
:100480004FF000084FF0000B21F00701AC46ACE83C
:10049000C009ACE8C009ACE8C009ACE8C0098D46A9
:1004A000704710B50446AFF300802046BDE8104009
:1004B000FFF768BE004870471C00002010B50024FC
:1004C00013E0002220210A4800F0DCF84FF4FA7013
:1004D00000F09FFC01222021054800F0D3F84FF4E2
:1004E000FA7000F096FC601C84B2C82CE9DB10BDE9
:1004F000000C014008B52020ADF8000010208DF858
:10050000030003208DF802006946044800F026F835
:1005100001222021014800F0B5F808BD000C01407F
:1005200000BFFEE7704700000549096821F010018F
:10053000034A1160114609680143116070470000C9
:100540000020024001460020034A106800F03800F5
:100550000843106070470000002002402DE9F04180
:10056000024600250026002000230024002791F8E1
:1005700003C00CF00F0591F803C00CF0100CBCF197
:10058000000F03D091F802C04CEA050591F800C0B5
:10059000BCF1000F31D0146800202BE04FF0010CAB
:1005A0000CFA00F3B1F800C00CEA03069E4220D119
:1005B00083004FF00F0C0CFA03F7BC4305FA03FC61
:1005C0004CEA040491F803C0BCF1280F06D14FF0A7
:1005D000010C0CFA00FCC2F814C00AE091F803C048
:1005E000BCF1480F05D14FF0010C0CFA00FCC2F829
:1005F00010C0401C0828D1D31460B1F800C0BCF171
:10060000FF0F34DD546800202EE000F1080C4FF09D
:10061000010808FA0CF3B1F800C00CEA03069E4288
:1006200021D183004FF00F0C0CFA03F7BC4305FAFD
:1006300003FC4CEA040491F803C0BCF1280F05D177
:1006400000F1080C08FA0CF8C2F8148091F803C005
:10065000BCF1480F07D100F1080C4FF0010808FA6F
:100660000CF8C2F81080401C0828CED35460BDE8B6
:10067000F0810246002093680B400BB1012000E09E
:10068000002070470AB1016100E04161704700BF7E
:10069000FEE7000008B50121042000F061F8032006
:1006A000ADF8000048208DF8030069460148FFF7C7
:1006B00055FF08BD0008014008B501211C2000F0CD
:1006C0004FF80320ADF8000010208DF80300032040
:1006D0008DF8020069460248FFF740FF08BD0000A0
:1006E000000C014000BFFEE77047000070B500211C
:1006F00000230F22C47804B3154C246804F4E0648A
:10070000C4F5E064210AC1F10403CA40447804FA44
:1007100003F184781440214309010E4C0678A15559
:10072000047804F01F050124AC4005786D11AD007C
:1007300005F1E025C5F8004109E0047804F01F0543
:100740000124AC40044D0678761145F8264070BD72
:100750000CED00E000E400E080E100E07047000004
:1007600029B1064A92690243044B9A6104E0034AA4
:1007700092698243014B9A61704700000010024069
:1007800010B500F035F84FF4803000F0F3F800F0C9
:100790004FF90446012C24D14FF4E011000400F07D
:1007A0002DF9002000F0DAF8A00200F009F900208D
:1007B00000F012F90220FFF7C5FE1020FFF7B4FE8B
:1007C000012000F015F900BF392000F0A1F8002841
:1007D000FAD0022000F020F900BF00F0B7F8082896
:1007E000FBD1012144F27C00FFF7BAFF10BD0000ED
:1007F0000F48006840F001000D4908600846406855
:100800000C4908400A494860084600680A490840FF
:10081000074908600846006820F480200860084600
:10082000406820F4FE0048604FF41F008860704765
:10083000001002400000FFF8FFFFF6FE30B5002177
:100840000022002400232D4D6D6805F00C0121B11C
:10085000042905D0082923D105E0294D056022E0AF
:10086000274D05601FE0254D6D6805F47012234D7E
:100870006D6805F48034022505EB92421CB9214DC8
:10088000554305600BE01D4D6D6805F400351DB145
:100890001C4D5543056002E0194D5543056002E0CB
:1008A000174D056000BF00BF144D6D6805F0F001E5
:1008B0000909154D6B5C0568DD4045600F4D6D689D
:1008C00005F4E061090A104D6B5C4568DD40856008
:1008D0000A4D6D6805F46051C90A0B4D6B5C4568A3
:1008E000DD40C560054D6D6805F44041890B074D3D
:1008F0006B5CC568B5FBF3F5056130BD00100240C7
:1009000000127A0000093D000600002016000020B9
:1009100010B501460022002300204A11012A02D10D
:10092000094C236806E0022A02D1074C236A01E041
:10093000054C636A01F01F02012494401C400CB175
:10094000012000E0002010BD001002400248406875
:1009500000F00C007047000000100240014600202B
:10096000034A506820F0F0000843506070470000D0
:10097000001002401149096821F480310F4A1160CA
:100980001146096821F480211160B0F5803F03D041
:10099000B0F5802F0ED106E00849096841F4803196
:1009A000064A116007E00549096841F4A021034A9D
:1009B000116000E000BF00BF70470000001002405F
:1009C00001460020034A506820F4E060084350606C
:1009D000704700000010024001460020034A5068A2
:1009E00020F4605040EAC10050607047001002409F
:1009F000014908667047000000004242024600209C
:100A0000044B586820F47C1042EA01031843014B60
:100A1000586070470010024001460020034A5068A9
:100A200020F00300084350607047000000100240AF
:100A300038B5002000900024002500BF3120FFF7CA
:100A400067FF05460098401C00900098B0F5A06F25
:100A500001D0002DF2D03120FFF75AFF08B1012458
:100A600000E00024204638BD704710B500F002F8C1
:100A700010BD00000CB500200190009033480068C4
:100A800040F480303149086000BF3048006800F40D
:100A9000003000900198401C0190009818B901980E
:100AA000B0F5A06FF1D12948006800F4003010B112
:100AB0000120009001E0002000900098012843D11F
:100AC0002348006840F0100021490860084600688B
:100AD00020F0030008600846006840F0020008604B
:100AE0001A48406819494860084640684860084606
:100AF000406840F4806048600846406820F47C10FC
:100B000048600846406840F4E810486008460068BD
:100B100040F08070086000BF0C48006800F0007072
:100B20000028F9D00948406820F0030007494860D0
:100B30000846406840F00200486000BF0348406833
:100B400000F00C000828F9D10CBD00000010024094
:100B5000002002407047000010B51348006840F0C4
:100B600001001149086008464068104908400E49D4
:100B70004860084600680E4908400B49086008466E
:100B8000006820F4802008600846406820F4FE00D9
:100B900048604FF41F008860FFF767FF4FF0006068
:100BA0000449086010BD0000001002400000FFF87A
:100BB000FFFFF6FE08ED00E010B52021064800F02A
:100BC0006DF838B1044800F007F9C4B2214603A01B
:100BD000FFF700FB10BD0000003801402563000056
:100BE00030B587B005460C46012144F20400FFF7FA
:100BF000B7FD4FF40070ADF8180003208DF81A000F
:100C000018208DF81B0006A91C48FFF7A7FC4FF41D
:100C10008060ADF8180004208DF81B0006A9174865
:100C2000FFF79CFC25208DF8040003208DF80500BB
:100C30008DF8060001208DF8070001A8FFF756FD8A
:100C400002950020ADF80C00ADF80E00ADF81000D4
:100C5000ADF814000C20ADF8120002A9084800F00D
:100C60004FF8224640F22551054800F024F80121B2
:100C7000034800F007F807B030BD0000000801404D
:100C80000038014021B1828942F40052828104E09F
:100C900082894DF6FF731A40828170470246002018
:100CA000B1F5007F00D100BF13880B400BB10120CC
:100CB00000E000207047F0B5034600240026002520
:100CC000002040F66A17B94200D100BF1846C1F3B0
:100CD000421401F01F06012707FA06F5012C01D185
:100CE0000C3004E0022C01D1103000E014301AB1B5
:100CF00007682F43076002E00768AF430760F0BD55
:100D00002DE9F04786B005460E460024A24600BFF6
:100D1000A1460027B08900B100BF2F462C8A4CF6AF
:100D2000FF700440F08804432C82AC894EF6F31027
:100D30000440B08831890843718908430443AC8179
:100D4000AC8A4FF6FF400440B0890443AC8201A84E
:100D5000FFF774FD1F48874202D1DDF810A001E0C3
:100D6000DDF80CA0A88900F4004040B10AEBCA00ED
:100D700000EB0A1031684900B0FBF1F807E00AEB1C
:100D8000CA0000EB0A1031688900B0FBF1F864205A
:100D9000B8FBF0F004012009642101FB1089A88947
:100DA00000F4004040B1322000EBC900B0FBF1F08C
:100DB00000F00700044308E0322000EB0910642132
:100DC000B0FBF1F000F00F0004432C8106B0BDE849
:100DD000F08700000038014001468888C0F3080011
:100DE000704700BFFEE730380A2801D20120704763
:100DF0000020704700BF704700B5034603E04FF482
:100E00007A7000F006F8181EA3F101018BB2F6D13A
:100E100000BD00EBC001C9004FF0E022516100218C
:100E200091610521116100BF4FF0E021096901F4D2
:100E300080310029F8D004214FF0E0221161704781
:100E400000BF054A128802F04002002AF9D0C2B25F
:100E5000014B1B1D1A80704700380140FFF790FCC2
:100E6000FFF72AFCFFF716FCFFF744FB00214FF4C5
:100E7000E130FFF7B5FE5BE020212E48FFF70EFFC3
:100E8000002827D02B48FFF7A7FFC4B2302C04D08E
:100E9000312C0CD0322C1BD113E00022012126482A
:100EA000FFF7F0FB214625A0FFF794F911E001229E
:100EB00011462148FFF7E6FB214624A0FFF78AF9F7
:100EC00007E0FFF7FBFA214623A0FFF783F900E0D4
:100ED00000BF00BF01212348FFF7CBFB88B91420D6
:100EE000FFF78AFF01211F48FFF7C3FB48B900BF86
:100EF00001211C48FFF7BDFB0028F9D01AA0FFF71D
:100F000069F902211748FFF7B4FB88B91420FFF7ED
:100F100073FF02211348FFF7ACFB48B900BF022161
:100F20001048FFF7A6FB0028F9D011A0FFF752F9EF
:100F3000A2E7000000380140000C014025633A4C54
:100F4000454431204F4646200000000025633A4CBE
:100F5000454431204F4E200025633A42555A5A45A8
:100F600052200000000801404B455931200000008C
:100F70004B4559322000000004000008000000002A
:100F8000000000020001000010000000AC0F00088B
:100F9000000000201C00000028010008C80F000805
:100FA0001C0000206406000044010008000000004E
:100FB0000000000000000102030401020304060710
:080FC000080902040608000004
:04000005080000ED02
:00000001FF
