:020000040800F2
:10000000A8060020890100085D04000837040008E4
:10001000590400089D020008F30C000800000000CD
:10002000000000000000000000000000DD070008E4
:10003000A102000800000000D1040008210A000805
:10004000A3010008A3010008A3010008A301000800
:10005000A3010008A3010008A3010008A3010008F0
:10006000A3010008A3010008A3010008A3010008E0
:10007000A3010008A3010008A3010008A3010008D0
:10008000A3010008A3010008A3010008A3010008C0
:10009000A3010008A3010008A3010008A3010008B0
:1000A000A3010008A3010008A3010008A3010008A0
:1000B000A3010008A3010008A3010008A301000890
:1000C000A3010008A3010008A3010008A301000880
:1000D000A3010008850A0008A3010008A301000885
:1000E000A3010008A3010008A301000800F002F822
:1000F00000F03AF80AA090E8000C82448344AAF188
:100100000107DA4501D100F02FF8AFF2090EBAE885
:100110000F0013F0010F18BFFB1A43F0010318473B
:10012000600C0000800C0000103A24BF78C878C131
:10013000FAD8520724BF30C830C144BF04680C60ED
:10014000704700000023002400250026103A28BF35
:1001500078C1FBD8520728BF30C148BF0B60704739
:100160001FB51FBD10B510BD00F065F81146FFF7B3
:10017000F7FF00F0E6FD00F083F803B4FFF7F2FFAD
:1001800003BC00F0B8FD000009488047094800475B
:10019000FEE7FEE7FEE7FEE7FEE7FEE7FEE7FEE737
:1001A000FEE7FEE704480549054A064B7047000094
:1001B000250A0008ED000008A8000020A80600207D
:1001C000A8020020A8020020704710B5203AC0F015
:1001D0000B80B1E81850203AA0E81850B1E8185048
:1001E000A0E81850BFF4F5AF5FEA027C24BFB1E885
:1001F0001850A0E8185044BF18C918C0BDE81040F6
:100200005FEA827C24BF51F8043B40F8043B08BFFE
:100210007047D20728BF31F8023B48BF11F8012BC5
:1002200028BF20F8023B48BF00F8012B70477047F9
:10023000704770477047754600F02CF8AE460500D1
:100240006946534620F00700854618B020B5FFF7F1
:10025000A9FFBDE820404FF000064FF000074FF027
:1002600000084FF0000B21F00701AC46ACE8C009D4
:10027000ACE8C009ACE8C009ACE8C0098D467047DD
:1002800010B50446AFF300802046BDE81040FFF7EC
:1002900074BF0000004870474800002000BFFEE720
:1002A000704730B587B0054601A800F02BFB9DF8DC
:1002B0001800012809D10498A84204D1DDE90201FF
:1002C00040EA012402E0002400E00024204607B0B8
:1002D00030BD000070B504460D462A46214602484E
:1002E00000F074FB70BD000000380140054909684A
:1002F00021F01001034A11601146096801431160A1
:10030000704700000020024001460020034A1068A8
:1003100000F03800084310607047000000200240E1
:100320002DE9F0410246002500260020002300248C
:10033000002791F803C00CF00F0591F803C00CF0F2
:10034000100CBCF1000F03D091F802C04CEA050577
:1003500091F800C0BCF1000F31D0146800202BE0F0
:100360004FF0010C0CFA00F3B1F800C00CEA0306E0
:100370009E4220D183004FF00F0C0CFA03F7BC43D0
:1003800005FA03FC4CEA040491F803C0BCF1280F01
:1003900006D14FF0010C0CFA00FCC2F814C00AE0C0
:1003A00091F803C0BCF1480F05D14FF0010C0CFAD5
:1003B00000FCC2F810C0401C0828D1D31460B1F86A
:1003C00000C0BCF1FF0F34DD546800202EE000F1C6
:1003D000080C4FF0010808FA0CF3B1F800C00CEA61
:1003E00003069E4221D183004FF00F0C0CFA03F755
:1003F000BC4305FA03FC4CEA040491F803C0BCF1C9
:10040000280F05D100F1080C08FA0CF8C2F8148086
:1004100091F803C0BCF1480F07D100F1080C4FF070
:10042000010808FA0CF8C2F81080401C0828CED346
:100430005460BDE8F08100BFFEE7000000200349E2
:100440000875034948610349087070471800002087
:10045000300000200000002000BFFEE770470000D1
:1004600070B5002100230F22C47804B3154C246812
:1004700004F4E064C4F5E064210AC1F10403CA4055
:10048000447804FA03F184781440214309010E4CA6
:100490000678A155047804F01F050124AC400578C6
:1004A0006D11AD0005F1E025C5F8004109E00478C3
:1004B00004F01F050124AC40044D0678761145F880
:1004C000264070BD0CED00E000E400E080E100E0BB
:1004D0007047000029B1064A92690243044B9A61B1
:1004E00004E0034A92698243014B9A61704700001D
:1004F0000010024010B500F035F84FF4803000F0E5
:10050000F3F800F04FF90446012C24D14FF4E01128
:10051000000400F02DF9002000F0DAF8A00200F04D
:1005200009F9002000F012F90220FFF7EDFE10207B
:10053000FFF7DCFE012000F015F900BF392000F0C4
:10054000A1F80028FAD0022000F020F900BF00F046
:10055000B7F80828FBD1012144F27C00FFF7BAFF6D
:1005600010BD00000F48006840F001000D49086010
:10057000084640680C4908400A4948600846006837
:100580000A490840074908600846006820F48020AE
:1005900008600846406820F4FE0048604FF41F00E1
:1005A00088607047001002400000FFF8FFFFF6FE71
:1005B00030B500210022002400232D4D6D6805F088
:1005C0000C0121B1042905D0082923D105E0294DCA
:1005D000056022E0274D05601FE0254D6D6805F49C
:1005E0007012234D6D6805F48034022505EB9242AC
:1005F0001CB9214D554305600BE01D4D6D6805F498
:1006000000351DB11C4D5543056002E0194D5543A1
:10061000056002E0174D056000BF00BF144D6D6816
:1006200005F0F0010909154D6B5C0568DD4045607A
:100630000F4D6D6805F4E061090A104D6B5C45686B
:10064000DD4085600A4D6D6805F46051C90A0B4DA7
:100650006B5C4568DD40C560054D6D6805F4404143
:10066000890B074D6B5CC568B5FBF3F5056130BDC3
:100670000010024000127A0000093D000100002035
:100680001100002010B501460022002300204A116D
:10069000012A02D1094C236806E0022A02D1074C44
:1006A000236A01E0054C636A01F01F0201249440B3
:1006B0001C400CB1012000E0002010BD00100240E1
:1006C0000248406800F00C00704700000010024033
:1006D00001460020034A506820F0F00008435060B3
:1006E00070470000001002401149096821F4803170
:1006F0000F4A11601146096821F480211160B0F59C
:10070000803F03D0B0F5802F0ED106E0084909687C
:1007100041F48031064A116007E00549096841F457
:10072000A021034A116000E000BF00BF7047000035
:100730000010024001460020034A506820F4E060A7
:10074000084350607047000000100240014600203E
:10075000034A506820F4605040EAC100506070477E
:100760000010024001490866704700000000424244
:1007700002460020044B586820F47C1042EA010332
:100780001843014B5860704700100240014600209A
:10079000034A506820F0030008435060704700008F
:1007A0000010024038B5002000900024002500BF52
:1007B0003120FFF767FF05460098401C0090009825
:1007C000B0F5A06F01D0002DF2D03120FFF75AFF15
:1007D00008B1012400E00024204638BD704710B560
:1007E00000F002F810BD00000CB500200190009050
:1007F0003348006840F480303149086000BF304819
:10080000006800F4003000900198401C01900098AE
:1008100018B90198B0F5A06FF1D12948006800F42B
:10082000003010B10120009001E0002000900098FD
:10083000012843D12348006840F010002149086096
:100840000846006820F0030008600846006840F091
:10085000020008601A484068194948600846406824
:1008600048600846406840F4806048600846406838
:1008700020F47C1048600846406840F4E810486066
:100880000846006840F08070086000BF0C480068AF
:1008900000F000700028F9D00948406820F00300FB
:1008A000074948600846406840F00200486000BFC1
:1008B0000348406800F00C000828F9D10CBD000086
:1008C00000100240002002400FB40021002200204E
:1008D00000BF13E05DF82130184400F480730BB1C1
:1008E00080F4C370002206E000F080030BB180F0BA
:1008F000C3004000521C082AF6D3491C0429E9D33E
:1009000004B0704710B50446182202492046FFF78C
:100910005CFC10BD1800002070B586B0064614229D
:10092000264901A8FFF751FC2448456940F22551AA
:10093000304600F01AF9002837D0214800F0D0F9ED
:1009400004462048007810B101282CD107E0AA2CD9
:1009500004D101946D1C01201A49087024E001A8FB
:1009600040F82540042D00D018D900250020154955
:1009700008700598009001A80FC8FFF7A5FFA042D6
:1009800008D1142201A91048FFF71FFC01200E49CD
:10099000087507E000200C49087503E06D1C012074
:1009A0000849087000E000BF00BF142201A90348F5
:1009B000FFF70BFC0148456106B070BD3000002018
:1009C000003801400000002018000020F0B587B07A
:1009D00007460E4614460025AA200290E0B2039076
:1009E000200A0490F0B205900698009002A80FC863
:1009F000FFF76AFF069000BF0EE002A830F825005E
:100A000081B2384600F071F900BF4021384600F04D
:100A10009FF80028F9D06D1C052DEED307B0F0BD6E
:100A20007047000010B51348006840F001001149FC
:100A3000086008464068104908400E49486008466A
:100A400000680E4908400B4908600846006820F419
:100A5000802008600846406820F4FE0048604FF49B
:100A60001F008860FFF7BBFE4FF00060044908607C
:100A700010BD0000001002400000FFF8FFFFF6FE6E
:100A800008ED00E010B50248FFF746FF10BD00007A
:100A90000038014030B587B005460C46012144F2CC
:100AA0000400FFF717FD4FF40070ADF818000320A5
:100AB0008DF81A0018208DF81B0006A91C48FFF7B6
:100AC0002FFC4FF48060ADF8180004208DF81B0057
:100AD00006A91748FFF724FC25208DF80400032001
:100AE0008DF805008DF8060001208DF8070001A89B
:100AF000FFF7B6FC02950020ADF80C00ADF80E0033
:100B0000ADF81000ADF814000C20ADF8120002A9E9
:100B1000084800F079F8224640F22551054800F0D7
:100B20004EF80121034800F007F807B030BD00007F
:100B3000000801400038014021B1828942F400528E
:100B4000828104E082894DF6FF731A4082817047EA
:100B500002460020B1F5007F00D100BF13880B4092
:100B60000BB1012000E00020704770B50246002460
:100B700000230025002040F66A16B14200D100BFD4
:100B8000C1F3421501F01F03012606FA03F3012DFC
:100B900002D19689334006E0022D02D1168A3340F5
:100BA00001E0968A33400C12012606FA04F41688F6
:100BB000344013B10CB1012000E0002070BDF0B54D
:100BC0000346002400260025002040F66A17B9429B
:100BD00000D100BF1846C1F3421401F01F060127DF
:100BE00007FA06F5012C01D10C3004E0022C01D1EA
:100BF000103000E014301AB107682F43076002E09C
:100C00000768AF430760F0BD2DE9F04786B00546A1
:100C10000E460024A24600BFA1460027B08900B1BD
:100C200000BF2F462C8A4CF6FF700440F088044326
:100C30002C82AC894EF6F3100440B0883189084309
:100C4000718908430443AC81AC8A4FF6FF400440ED
:100C5000B0890443AC8201A8FFF7AAFC1F48874271
:100C600002D1DDF810A001E0DDF80CA0A88900F4A5
:100C7000004040B10AEBCA0000EB0A10316849009D
:100C8000B0FBF1F807E00AEBCA0000EB0A1031688C
:100C90008900B0FBF1F86420B8FBF0F004012009F2
:100CA000642101FB1089A88900F4004040B1322082
:100CB00000EBC900B0FBF1F000F00700044308E0CE
:100CC000322000EB09106421B0FBF1F000F00F00BE
:100CD00004432C8106B0BDE8F087000000380140D5
:100CE00001468888C0F308007047C1F3080282807B
:100CF000704700BFFEE700BF704700B5034603E042
:100D00004FF47A7000F006F8181EA3F101018BB2BF
:100D1000F6D100BD00EBC001C9004FF0E0225161E7
:100D2000002191610521116100BF4FF0E0210969A7
:100D300001F480310029F8D004214FF0E022116144
:100D4000704700240025FFF7D5FB01214FF4E13067
:100D5000FFF7A0FEFFF772FB11E0002409E0204638
:100D6000FFF79FFA05461DB129462046FFF7B2FA64
:100D7000641CFF2CF3D34FF4FA70FFF7BEFFECE7CF
:100D8000A00D000800000020180000002801000845
:100D9000B80D00081800002090060000440100086B
:100DA000000000000001020304010203040607081A
:080DB00009020406080000001E
:04000005080000ED02
:00000001FF
