:020000040800F2
:10000000E80B002029020008ED150008E91500089A
:10001000EB15000853060008F12F0008000000004F
:10002000000000000000000000000000191F000890
:10003000870A000800000000FD160008B52100082E
:10004000430200084302000843020008430200087C
:10005000430200084302000843020008430200086C
:10006000430200084302000843020008430200085C
:10007000430200084302000843020008430200084C
:100080004302000843020008DD02000843020008A2
:10009000430200084302000843020008430200082C
:1000A00043020008430200084302000889240008B4
:1000B000430200084302000843020008430200080C
:1000C00043020008430200084302000843020008FC
:1000D00043020008012E0008430200084302000802
:1000E00043020008430200084302000843020008DC
:1000F000F9240008430200084302000843020008F4
:1001000000000000000000000000000043020008A2
:1001100043020008430200084302000843020008AB
:10012000430200084302000843020008430200089B
:100130004302000843020008000000000000000025
:1001400043020008430200084302000800000000C8
:10015000000000000000000000000000000000009F
:1001600000000000000000004302000843020008F5
:100170004302000800000000000000000000000032
:10018000000000004302000800F002F800F03CF814
:100190000AA090E8000C82448344AAF10107DA45E2
:1001A00001D100F031F8AFF2090EBAE80F0013F0F8
:1001B000010F18BFFB1A43F0010318474C3300002E
:1001C0006C330000103A24BF78C878C1FAD85207BF
:1001D00024BF30C830C144BF04680C6070470000C1
:1001E0000023002400250026103A28BF78C1FBD840
:1001F000520728BF30C148BF0B6070471FB503F0DE
:1002000075F91FBD10B510BD00F031F81146FFF7AC
:10021000F5FF02F033FF00F04FF803B4FFF7F2FFF1
:1002200003BC00F053F80000094880470948004724
:10023000FEE7FEE7FEE7FEE7FEE7FEE7FEE7FEE796
:10024000FEE7FEE704480549054A064B70470000F3
:100250004D23000889010008E8050020E80B002074
:10026000E8070020E8070020704770477047754690
:1002700000F028F8AE4605006946534620F0070016
:10028000854618B020B5FFF7DDFFBDE820404FF0F0
:1002900000064FF000074FF000084FF0000B21F070
:1002A0000701AC46ACE8C009ACE8C009ACE8C0093D
:1002B000ACE8C0098D4670470446AFF30080204685
:1002C000FFF7ABFF00487047880500200149182060
:1002D000ABBEFEE7260002007047000070B5154C6B
:1002E000154D08214FF0A04000F0DDF850B14FF05F
:1002F000A04000F0D5F8A4F8700008214FF0A0400D
:1003000000F03BF80D4E0821304600F0CCF840B12B
:10031000304600F0C5F8A4F870000821304600F01F
:100320002CF8B4F8701005F58870BDE8704001F045
:10033000D5BC000050000020D00200200001005079
:10034000C26822F0F84242EA8161C1607047036AE4
:100350006FF31B430362036A43EA01410162016ACE
:100360006FF30B010162016A114301627047C268B9
:1003700022F0E0721143C1607047016070470029AC
:10038000816814BF41F0010141F0020181607047B2
:1003900010B58AB000214FF0A040FFF7F0FF012117
:1003A000080701F0ADF94FF0A040D0F8081341F470
:1003B0008031C0F80813012100F03EF9142002F04A
:1003C0004BFE4FF080414FF0A04000F016F94FF087
:1003D000A04000F027F94FF0A04000F059F80028A5
:1003E000F9D103208DF82400012408A94FF0904092
:1003F000089401F067F80220089008A94FF0904097
:1004000001F060F8A10203910020491002910190CF
:10041000049000908DF81C40C900CDE90510694694
:100420004FF0A04000F054F80122062311464FF08F
:10043000A04000F075F8012211464FF0A04000F0F6
:10044000E4F8012208214FF0A04000F038F8012123
:100450004FF0A040FFF793FF4FF0A04000F0E7F807
:10046000142002F0F9FD4FF440014FF0A040FFF7D7
:100470007EFF40F2FF524FF4E0614FF0A040FFF7E3
:1004800066FF10214FF0A040FFF75AFF0AB010BDE1
:1004900001460020896811F0004F18BF0120704705
:1004A000006C80B270470368002289B240680B423A
:1004B00000EA01001CBF0028012210467047002AF4
:1004C000426814BF114322EA0101416070470000F5
:1004D00010B4C268114B1A40D1E9003C43EA0C0346
:1004E000D1E902C44CEA040C43EA0C03D1F810C071
:1004F00043EA0C03D1F814C043EA0C03D1F818C046
:1005000043EA0C031A43C260026B097F22F00F0218
:10051000491E1143016310BC7047000007C0FFFD76
:1005200010B44FF01F0C052A0DD2046B02EB4202EF
:1005300052000CFA02FC24EA0C0C01FA02F24CEA1A
:10054000020202632FE00A2A0ED2446B521F02EB12
:10055000420252000CFA02FC24EA0C0C01FA02F2EC
:100560004CEA020242631EE00F2A0ED2846B0A3A62
:1005700002EB420252000CFA02FC24EA0C0C01FAD3
:1005800002F24CEA020282630DE0C46B0F3A02EB06
:10059000420252000CFA02FC24EA0C0C01FA02F2AC
:1005A0004CEA0202C263092911D982690A3901EBB6
:1005B00041010722D0F818C08A402CEA0202826169
:1005C000826903FA01F11143816110BC70474269ED
:1005D0004A1E02EB42024FF0380C0CFA02F2D0F83D
:1005E00014C02CEA02024261426901EB410103FAA4
:1005F00001F11143416110BC7047826822F08042D2
:1006000082608268114381607047012303FA01F11F
:10061000002AD0F8B02014BF114322EA0101C0F82B
:10062000B0107047816841F0004181607047816877
:1006300041F0040181607047826822F0405282607C
:100640000029816814BF41F0805141F00051816060
:100650007047FEE770B5154D6021284601F0ACFFEC
:10066000134C20684FF6FE71084020602068C91EB8
:10067000084020606021284601F0A6FF20684FF660
:10068000EF7108402060206840F040002060502159
:10069000284601F0A2FF206840F4807020602068A6
:1006A0004FF6FF310840206070BD0000003401406B
:1006B0002034014070B5154D6021284601F07CFFC3
:1006C000134C206840F00100206020684FF6FB7159
:1006D000084020605021284601F076FF20684FF640
:1006E000EF7108402060206840F0400020606021E9
:1006F000284601F072FF20684FF6FF610840206035
:1007000020684FF6FF310840206070BD0034014082
:100710002034014070B5154D5021284601F04CFFA2
:10072000134C206840F00100206020684FF6FB71F8
:10073000084020606021284601F046FF20684FF6FF
:10074000EF710840206020684FF6BF7108402060BC
:100750006021284601F041FF20684FF6FF61084004
:100760002060206840F48060206070BD003401404B
:100770002034014070B5154D6021284601F01CFF62
:10078000134C20684FF6FE71084020602068C91E97
:10079000084020606021284601F016FF206840F0E4
:1007A0001000206020684FF6BF7108402060502183
:1007B000284601F012FF20684FF6FF6108402060D4
:1007C000206840F48060206070BD0000003401406B
:1007D0002034014070B5154D6021284601F0ECFE33
:1007E000134C20684FF6FE7108402060206840F0EE
:1007F000040020605021284601F0E6FE206840F009
:100800001000206020684FF6BF7108402060602112
:10081000284601F0E2FE20684FF6FF6108402060A4
:1008200020684FF6FF310840206070BD0034014061
:100830002034014070B5154D5021284601F0BCFE12
:10084000134C20684FF6FE7108402060206840F08D
:10085000040020606021284601F0B6FE20684FF6B3
:10086000EF710840206020684FF6BF71084020609B
:100870006021284601F0B1FE206840F480702060BD
:1008800020684FF6FF310840206070BD0034014001
:100890002034014070B5164D4021284601F08CFEF1
:1008A000144C20684FF6FE71084020602068C91E75
:1008B000084020604021284601F086FE20684FF65F
:1008C000EF710840206020684FF6BF71084020603B
:1008D0004021284601F081FE20684FF6FF61084064
:1008E000206020684FF6FF310840206070BD000096
:1008F000003401402034014010F0805F19BF0249EC
:100900000860024948607047040402400000024049
:100910000029016812BF41F001014FF6FE7211403B
:100920000160704730B50D46044601218BB0084682
:1009300000F0E6FE00940020CDE901500121ADF861
:100940000C1049020490CDE9050189000791890046
:1009500009912021064C08910A906946204600F032
:1009600069F801212046FFF7D3FF0BB030BD00002E
:100970000800024030B50D46044601218BB0084600
:1009800000F0BEFE00940020CDE901500121ADF839
:100990000C1049020490CDE90501890007918900F6
:1009A00009912021064C08910A906946204600F0E2
:1009B00041F801212046FFF7ABFF0BB030BD00002E
:1009C0005800024030B50D46044601218BB0084660
:1009D00000F096FE00940020CDE901500121ADF811
:1009E0000C1049020490CDE90501890007918900A6
:1009F00009912021064C08910A906946204600F092
:100A000019F801212046FFF783FF0BB030BD00002D
:100A100080000240002210F0805F14BF03490449A7
:100A20000968014218BF01221046704700040240C5
:100A30000000024010B40268D1F820C08B686FF348
:100A40000E1243EA0C03D1E904C44CEA040C43EA55
:100A50000C03D1F818C043EA0C03D1F81CC043EAD8
:100A60000C03D1F824C043EA0C03D1F828C043EAB0
:100A70000C031A4302608A8942600A6882604968EE
:100A8000C16010BC7047704770B5274D274C95F872
:100A9000A00068B326480078022804D1B4F82401E5
:100AA000401CA4F82401687807281DD2DFE800F074
:100AB0001C04080C10141800BDE87040FFF7CABDF4
:100AC000BDE87040FFF7F6BDBDE87040FFF722BEFD
:100AD000BDE87040FFF74EBEBDE87040FFF77ABE3C
:100AE000BDE87040FFF7A6BEBDE87040FFF7D2BE7C
:100AF00002F05EFC0F4909200870D4F8B40040F4FD
:100B00008070C4F8B400B4F8FE000B490880A878DF
:100B10000A490880A8780A49085C0A490880687868
:100B20000949088070BD0000180200205000002014
:100B30000200002000000020060000200800002025
:100B4000FE3400080A0000200C0000202DE9F047C8
:100B5000F94CFA4EFA4D94F8A2004FF00109002723
:100B600010B101280ED01AE0606E4AF26971884215
:100B700015D284F8A29094F8A21005F1E00001F0DB
:100B8000ADF80CE0606E4CF6E501884207D984F8B8
:100B9000A27094F8A21005F1E00001F09FF84FF068
:100BA000804001F024FDC4F8900022784FF090417D
:100BB000088A10F4004F0CBF6FF00100FF201040B6
:100BC00020702378DF4A108810F4806018BF02205C
:100BD000184320702378088A10F0080F0CBF6FF0BC
:100BE0000400FF201840207020780B8A40EAD330A0
:100BF00020702378108810F4806F0CBF6FF0020013
:100C0000FF20184020702278088A10F0080018BFD2
:100C1000042010432070A0786178884206D0B4F890
:100C2000A400A4F8A600A4F8A4900BE0C64800789D
:100C3000002808BFA4F8A47004D0B4F8A400401C95
:100C4000A4F8A400D4F89000D4F894106FF0604891
:100C50008842D4F89000D4F89410A0EB010098BF1B
:100C60004044C4F89800A0786178884207D0D4F84E
:100C70009000C4F89400D4F89800C4F89C00A078C0
:100C80006278B249904205D1607800281CBF607834
:100C9000072806D1A0786278085C904218BF00202F
:100CA00000D1012084F8A000D6F8B42094F8A00068
:100CB000002814BF00204FF480701043C6F8B40021
:100CC000B6F8FE00A24A1080A078A24A1080A07850
:100CD000085CA14908806078A04908806078A0700D
:100CE00020789F49085C60704FF40030FFF792FE57
:100CF00050B90220FFF78EFE30B94FF00070FFF7B9
:100D000089FE002800F04B826078072822D2DFE8B5
:100D100000F02104090E13181D0020696063606B48
:100D2000E06117E0A0696063606B206212E06069B7
:100D30006063606B60620DE020696063606BA0625D
:100D400008E0A0696063606BE06203E06069606373
:100D5000606B2063606BA16B8842606BA16BA0EB42
:100D6000010098BF4044E063606BA063206CA16EFB
:100D700004EB8101496C401A2064E06BA16E04EB26
:100D800081014864206CE16B08442064206CC00839
:100D90006066A06E072828BFA76602D2A06E401C1E
:100DA000A066206F6067E06E2067606E216F401A5A
:100DB000A067E06FA16F0844E067E06FB0F1005FEB
:100DC000A8BFC4F87C8005DAE06FB0F1604FDCBFEB
:100DD0006448E067E06EA16F00EBE100E066E06E62
:100DE000E16F00EB6100E0664FF00070FFF784FDFB
:100DF0000220FFF781FD4FF40030FFF77DFDC4F8BE
:100E0000887084F88470A4F88C70B4F8A800001F6F
:100E1000172880F0A281DFE800F00C15293A4B5C1E
:100E20006D7EA7B8C8D8F3F1F0EFEEEDECEBEAE990
:100E3000E800E06E42F630218842C8BF052040F34A
:100E400093810FE0E06E42F631218842BCBF04205E
:100E5000A4F8A800E06E43F263218842C8BF0620D0
:100E600040F38281A4F8A80000F07EB9E06E43F25E
:100E700064218842BCBF0520A4F8A800E06E43F6B8
:100E8000EF418842C8BF072040F36E81EAE7E06E79
:100E900043F6F0418842BCBF0620A4F8A800E06EEB
:100EA00044F24B618842C8BF082040F35D81D9E716
:100EB000E06E44F24C618842BCBF0720A4F8A80051
:100EC000E06E44F6A8718842C8BF092040F34C8107
:100ED000C8E7E06E44F6A9718842BCBF0820A4F8B8
:100EE000A800E06E45F60C118842C8BF0A2040F306
:100EF0003B81B7E7E06E45F60D118842BCBF092083
:100F0000A4F8A800E06E46F26E218842C8BF0B200C
:100F100040F32A81A6E7E06E46F26F218842BCBF0B
:100F20000A20A4F8A800E06E46F6C6318842C8BF81
:100F30000C2040F3198195E7180200205000002092
:100F4000D00200201004004800000020FE340008F9
:100F500006000020080000200A0000200C000020ED
:100F6000F6340008010000E0E06E46F6C731884222
:100F7000BCBF0B20A4F8A800E06E47F224518842C1
:100F8000C8BF0D2040F3F0806CE7E06E47F22551BA
:100F90008842BCBF0C20A4F8A800E06E47F682612E
:100FA0008842C8BF0E2079DD5CE7E06E47F68361BA
:100FB0008842BCBF0D20A4F8A800E06E48F2EC7196
:100FC0008842C8BF0F2069DD4CE7E06E48F2ED7142
:100FD0008842BCBF0E20A4F8A800E06E49F242117E
:100FE0008842C8BF102059DD3CE7A6E097E086E0C4
:100FF00075E064E053E041E030E020E010E0FFE71E
:10100000E06E49F243118842BCBF0F20A4F8A8004B
:10101000E06E49F6A7218842C8BF11203EDD21E7D6
:10102000E06E49F6A8218842BCBF1020A4F8A800B1
:10103000E06EB0F5244FA8BF12202FDB12E7E06E60
:10104000B0F5244FBCBF1120A4F8A800E06E4AF60A
:1010500055518842C8BF132020DD03E7E06E4AF6F1
:1010600056518842BCBF1220A4F8A800E06E4BF293
:10107000CC618842C8BF142076DDF3E6E06E4BF207
:10108000CD618842BCBF1320A4F8A800E06E4CF2EA
:101090000F018842C8BF152066DDE3E664E0E06E1C
:1010A0004CF210018842BCBF1420A4F8A800E06EE6
:1010B0004CF67F118842C8BF162055DDD2E6E06E9F
:1010C0004CF680118842BCBF1520A4F8A800E06E41
:1010D0004DF2CD218842C8BF172045DDC2E6E06E43
:1010E0004DF2CE218842BCBF1620A4F8A800E06EC5
:1010F0004DF647418842C8BF182035DDB2E6E06EA4
:101100004DF648418842BCBF1720A4F8A800E06E05
:101110004EF298518842C8BF192025DDA2E6E06E44
:101120004EF299518842BCBF1820A4F8A800E06E86
:101130004EF6E061884215DC16E0E06E4EF6E161A5
:101140008842BCBF1920A4F8A800E06E4FF65301F6
:101150008842C8BF1B2007DD84E6E06E4FF65401CD
:10116000884201DA1A207DE6B4F8A61005F5F4707D
:1011700000F0B4FDB4F8A81005F5007000F0AEFD65
:10118000626E05F5AC7105F5A07000F045FDE26EEC
:1011900005F5C47105F5B87000F03EFD11E0D4F816
:1011A000880045F2B531884206D994F884000028B9
:1011B00008BF84F8849004E0D4F88800401CC4F888
:1011C000880094F88400012818BFBDE8F087B4F8BF
:1011D0008C00082828BFBDE8F087206CA16E04EBC6
:1011E0008101496C401A2064A06E04EB8000C0F8B5
:1011F0004480206C40442064206CC0086066A06E6F
:10120000072828BFA76602D2A06E401CA066B4F8CB
:101210008C0007280ED1206F6067E06E2067606E3B
:10122000E066A767E767C4F88070B4F88C00401CDC
:10123000A4F88C00B4F88C00401CA4F88C00BDE825
:10124000F0870000304810B400218C4681666FF0B2
:101250006042426600EB81035A64036C13440364EA
:10126000491CC9B20829F5D3C26602674267C0F8B3
:1012700078C0C0F87CC0C0F880C0C0F888C080F8D2
:1012800084C0A0F88CC003784FF09042118A11F40A
:10129000004F14BFFF216FF0010119400170047865
:1012A0001A4B198811F4806118BF02212143017083
:1012B0000478118A11F0080F0CBF6FF00401FF21B0
:1012C000214001700178148A41EAD4310170047818
:1012D000198811F4806F0CBF6FF00201FF212140CB
:1012E00001700378118A11F0080118BF0421194315
:1012F00001700178064A515C41704178817080F834
:10130000A2C010BC70470000180200201004004862
:10131000F63400082DE9F0412E4C2F4E0025C4F87C
:101320004061C4F84461C4F84861C4F84C61C4F831
:101330005061C4F85461A4F83251A4F83451A4F8AF
:101340003651A4F83851A4F83A51A4F83C51234F2F
:101350004FF40041384600F00FF984F82C014FF4A7
:101360008041384600F008F984F82D014FF400510F
:10137000384600F001F984F82E0194F82C0184F825
:101380002F0194F82D0184F8300194F82E0184F88F
:101390003101C4F82861D4F828010003C4F85801C9
:1013A000D4F85801C4F89801D4F89801C4F8B800EA
:1013B000D4F89801C000C4F85C01D4F8980104EB9B
:1013C0008501C1F86C01681C85B2082DF5D3BDE814
:1013D000F081000050000020F0FF010000080048EC
:1013E00004480021A0F8F4104FF4E161A0F8F610D1
:1013F00070470000500000201F491E48496E1F4AD8
:10140000B2FBF1F1C0F8AC11D0F8C8100901C0F876
:10141000B011D0F8B011D0F8AC21891AC0F8B411CD
:10142000D0F8B811D0F8B4211144C0F8B811D0F8F0
:10143000B811B1F5F03FC8BF4FF4F03106DCD0F879
:10144000B81111F5F03FB8BF0D4901DAC0F8B81175
:10145000D0F8B4118912C0F8C011D0F8B8118912AF
:10146000C0F8C411D0F8C011D0F8C401084405492F
:1014700008807047500000201802002080E80B31DF
:101480000020FEFF0600002002480021C0F8B8112D
:10149000704700005000002004490028086814BF6D
:1014A00040F0100020F0100008607047002002405B
:1014B000034A116821F003010843106070470000DF
:1014C00000200240F0B4002201250324D1F800C01E
:1014D00005FA02F30CEA030C9C4537D191F804C0DD
:1014E000BCF1010F18BFBCF1020F1AD186684FEA98
:1014F000420C04FA0CF7BE4386604E7906FA0CFCE7
:1015000086684CEA060CC0F808C0B0F804C02CEAA3
:1015100003038380B0F804C08B7993404CEA030343
:1015200083800668530004FA03FC26EA0C06066072
:101530000E7907689E403E430660C66826EA0C0C9A
:10154000CE7906FA03F343EA0C03C360521C102A57
:10155000BCD3F0BC70474B07DB0E9A40C90800EBC8
:101560008100016A4FF00F0C0CFA03F399430162FA
:10157000016A11430162704702460020128A0A4242
:1015800018BF01207047000010B5012182B0C804C7
:1015900000F0B6F80121C80400F0B2F80121C80437
:1015A00000F0AEF800208DF8040003208DF805004F
:1015B00001208DF8070040030A4C00906946204640
:1015C000FFF780FF4FF48041009169462046FFF706
:1015D00079FF4FF40041009169462046FFF772FF02
:1015E00002B010BD00080048FEE7FEE7704708B5EE
:1015F00012208DF8000001208DF8010000218DF8E7
:1016000002108DF80300684600F032F808BD08B5F6
:101610001B208DF8000002208DF8010000208DF8BD
:10162000020001208DF80300684600F021F808BD93
:1016300008B52C208DF8000000208DF801008DF8F1
:10164000020001208DF80300684600F011F808BD83
:1016500008B525208DF8000003208DF801008DF8D5
:10166000020001208DF80300684600F001F808BD73
:1016700010B4C27801784FF00F0C01242AB3194A34
:10168000126801F1E02102F4E062C2F5E062120AA0
:10169000C2F104032CFA02F290F801C00CFA03F331
:1016A00090F802C00CEA02021A43120181F80024E9
:1016B000007800F01F0104FA01F14009800000F1F8
:1016C000E020C0F8001110BC704701F01F0004FAC0
:1016D00000F04909890001F1E021C1F8800110BC46
:1016E000704700000CED00E0034940F0FD7040F051
:1016F00080600860704700000CED00E0704700005B
:10170000044A0029516914BF084321EA00005061CE
:101710007047000000100240044A0029D16914BF3C
:10172000084321EA0000D061704700000010024029
:10173000044A0029916914BF084321EA000090611E
:10174000704700000010024010B500F02FF805208F
:1017500000F00EFA00F044FA012818BF10BD4FF453
:10176000E0114FF4803000F025FA002000F0F6F987
:101770004FF4806000F004FA002000F00BFA022021
:10178000FFF796FE0120FFF787FE012000F00CFA1C
:10179000192000F0C1F90028FAD0022000F016FA52
:1017A00000F0D4F90828FBD110BD000010480168F2
:1017B00041F00101016041680E4A11404160016839
:1017C00021F4102121F080710160016821F4802151
:1017D0000160416821F4FE014160C16A6FF30D01AF
:1017E000C162016B044A11400163002181607047AE
:1017F0000010024000C0FFF8CCEC000F2DE9F00F04
:10180000DFF800930021D9F80420BF4E12F00C023B
:1018100018BF042A01D0082A01D0066018E0D9F8C0
:101820000410D9F8042001F470114FF0020312F4EF
:10183000803F03EB914104BFB44A514307D0D9F82C
:101840002C2002F00F02521CB6FBF2F25143016051
:10185000D9F804300F22AE4F02EA131217F802C073
:10186000026822FA0CF34360D9F804404FF00708ED
:1018700008EA14243C5D23FA04F58560D9F8044095
:1018800008EAD4243C5DE340C360D9F82C704FF0E3
:101890001F0B0BEA1717DFF87CA207F00F083AF8C6
:1018A000188017F0100F17BFB8F1000F0261B1FBDD
:1018B000F8F70761D9F82C700BEA572707F00F08E3
:1018C0003AF8188017F0100F17BFB8F1000F4261F7
:1018D000B1FBF8F74761D9F8307017F0100F0CBF63
:1018E00086618261D9F8307017F0200F0CBFC66195
:1018F000C261D9F8307017F0400F0CBF0662026267
:10190000D9F8307017F4807F05D08A4202BF644551
:101910004F00476200D04362D9F8307017F4805FFF
:1019200005D08A4202BF64454F00876200D08362BF
:10193000D9F8307017F4007F05D08A4202BF6445A1
:101940004F00C76200D0C362D9F8307017F4806FBF
:1019500005D08A4202BF64454F00C76400D0C3640B
:10196000D9F8307017F4006F05D08A4202BF644581
:101970004F00076500D00365D9F8307017F4005F99
:1019800005D08A4202BF64454F00476500D0036519
:10199000D9F8307017F4004F05D08A4202BF644571
:1019A0004900816500D08365D9F8301011F0030F2C
:1019B0004FF4004108BF836317D0D9F8303003F0EB
:1019C0000303012B08BF82630FD0D9F8303003F036
:1019D0000303022B08BF816307D0D9F830304FF0E2
:1019E000030C3CEA030308BF8663D9F8303013F4D4
:1019F000403F08BFC56319D0D9F8303003F44033F5
:101A0000B3F5803F08BFC26310D0D9F8303003F47B
:101A10004033B3F5003F08BFC16307D0D9F8303079
:101A20004FF4403C3CEA030308BFC663D9F83030AA
:101A300013F4402F08BF056419D0D9F8303003F4EF
:101A40004023B3F5802F08BF026410D0D9F830309E
:101A500003F44023B3F5002F08BF016407D0D9F881
:101A600030304FF4402C3CEA030308BF0664D9F839
:101A7000303013F4401F08BF456419D0D9F8303016
:101A800003F44013B3F5801F08BF426410D0D9F8A7
:101A9000303003F44013B3F5001F08BF416407D092
:101AA000D9F830304FF4401C3CEA030308BF4664C9
:101AB000D9F8303013F4400F02BF8564BDE8F00F51
:101AC0007047D9F8303003F44003B3F5800F02BFFC
:101AD0008264BDE8F00F7047D9F8302002F440026C
:101AE000B2F5000F02BF8164BDE8F00F7047D9F86E
:101AF00030104FF4400232EA010108BF8664BDE8AD
:101B0000F00F70470010024000127A0000093D00FB
:101B10000E0000201E00002000230B4A410908BFD0
:101B2000116807D0012908BF116A03D004290CBF2E
:101B30005168516A00F01F00012202FA00F00842C9
:101B400018BF012318467047001002400248406841
:101B500000F00C007047000000100240034A51687A
:101B600021F0F0010843506070470000001002406F
:101B7000024900228A7088707047000000100240FD
:101B8000034A516821F4E061084350607047000047
:101B900000100240034A516821F4605141EAC0003C
:101BA000506070470010024001490866704700000D
:101BB00000004242044A536823F47413536053688C
:101BC000084318435060704700100240034A5168B0
:101BD00021F00301084350607047000000100240EC
:101BE00008B500200B4A00900020116811F4003F56
:101BF00018BF01200099491C0091B1F5A04F01D0F8
:101C00000028F1D01120FFF787FF002818BF01201E
:101C100008BD000000100240114B5B68834214BFF6
:101C20008B42704793B203F0FF0C120CA0F802C075
:101C30001B0A8380D3B24B80120A8A8090F815C0A9
:101C400000230122BCF1010F0EBF82724275837224
:101C5000487D01280EBF8A724A758B72704700005A
:101C6000D002002070B4D0F80CC000249C4527D1CD
:101C7000DFF864C0DCF804C0844518BF8C451FD071
:101C80001FFA82FC0CF0FF06120C46804FEA1C255E
:101C9000858002F0FF0CA1F802C0120A8A8090F839
:101CA00015C00122BCF1010F0EBF82724275847211
:101CB00091F815C0BCF1010F0EBF8A724A758C7283
:101CC000417D31B9C1684A1CC26099429CBF70BC59
:101CD0007047C46070BC7047D0020020094A526847
:101CE000824208BF7047CAB24280090A8180427DA1
:101CF0000121012A04BF8172704741750021817260
:101D000070470000D002002010B4437D4FF0000C5B
:101D100023B9C3685C1CC460934201D9C0F80CC0ED
:101D2000C36893421CBF10BC70470A4A5268824283
:101D300004BF10BC7047CAB24280090A8180427D4C
:101D40000121012A0EBF8172417580F80AC010BCC2
:101D500070470000D002002010B5644C00202080A5
:101D600004F1080104F120020120616000F0CAF8CA
:101D700004F1380204F12001012000F0C3F804F15D
:101D8000500204F13801022000F0BCF804F16802AE
:101D900004F15001032000F0B5F804F1800204F1D1
:101DA0006801042000F0AEF804F1980204F180010B
:101DB000102000F0A7F804F1B00204F198011120FE
:101DC00000F0A0F804F1C80204F1B001802000F096
:101DD00099F804F1E00204F1C801812000F092F8C2
:101DE00004F1F80204F1E001822000F08BF804F520
:101DF000887204F1F801902000F084F804F59472E0
:101E000004F58871912000F07DF804F5A07204F5C6
:101E10009471982000F076F804F5AC7204F5A07186
:101E2000A02000F06FF804F5B87204F5AC71A120A1
:101E300000F068F804F5C47204F5B871A22000F04F
:101E400061F804F5D07204F5C471A32000F05AF8CB
:101E500004F5DC7204F5D071A42000F053F804F509
:101E6000E87204F5DC71A52000F04CF804F5F4727A
:101E700004F5E871B02000F045F804F5007204F5AF
:101E8000F471B12000F03EF804F5067204F500711B
:101E9000B22000F037F804F50C7204F50671C0208A
:101EA00000F030F804F5127204F50C71C12000F056
:101EB00029F804F5187204F51271F02000F022F8E8
:101EC00004F51E7204F51871F12000F01BF804F5FA
:101ED000247204F51E71F22000F014F804F5247148
:101EE0006268BDE81040F32000F00CB8D00200207A
:101EF0000348AA210180002181818172704700007E
:101F000078050020AA230B80C88000200A6108758C
:101F100048758872C8607047704707B4BDF8000004
:101F200010F4807F18BF80F4C37010F0800F18BFCA
:101F300080F0C300400010F0800F18BF80F0C30095
:101F4000400010F0800F18BF80F0C300400010F078
:101F5000800F18BF80F0C300400010F0800F18BF42
:101F600080F0C300400010F0800F18BF80F0C30065
:101F7000400010F0800F18BF80F0C300400010F048
:101F8000800F18BF80F0C300BDF8021001EB4000C5
:101F900010F4807F18BF80F4C37010F0800F18BF5A
:101FA00080F0C300400010F0800F18BF80F0C30025
:101FB000400010F0800F18BF80F0C300400010F008
:101FC000800F18BF80F0C300400010F0800F18BFD2
:101FD00080F0C300400010F0800F18BF80F0C300F5
:101FE000400010F0800F18BF80F0C300400010F0D8
:101FF000800F18BF80F0C300BDF8041001EB400053
:1020000010F4807F18BF80F4C37010F0800F18BFE9
:1020100080F0C300400010F0800F18BF80F0C300B4
:10202000400010F0800F18BF80F0C300400010F097
:10203000800F18BF80F0C300400010F0800F18BF61
:1020400080F0C300400010F0800F18BF80F0C30084
:10205000400010F0800F18BF80F0C300400010F067
:10206000800F18BF80F0C300BDF8061001EB4000E0
:1020700010F4807F18BF80F4C37010F0800F18BF79
:1020800080F0C300400010F0800F18BF80F0C30044
:10209000400010F0800F18BF80F0C300400010F027
:1020A000800F18BF80F0C300400010F0800F18BFF1
:1020B00080F0C300400010F0800F18BF80F0C30014
:1020C000400010F0800F18BF80F0C300400010F0F7
:1020D000800F18BF80F0C3004004000C03B07047AD
:1020E00070B5184D0646164C294600F0E9FE00284A
:1020F00008BF70BD304600F073FFA27A12B1012A0A
:1021000007D016E0AA2814D1A089401CA081012084
:102110000AE0A18924F81100A089042802D0A0892E
:10212000042803D90020A081A07202E0A089401CED
:10213000A08129463046BDE8704000F0ABBE0000EB
:10214000780500200501050070B5194D06464021AF
:102150006C6800F0AEFE002808BF70BD607D0028EE
:1021600013BF207D20696860052828BF70BD207DD1
:1021700028B920686168A268FFF7CFFE2081207D22
:1021800004EB4001401C20750988304600F02CFF0C
:10219000207D052803D8207D052818BF70BD0020AC
:1021A00020756075206968600120A87070BD00000E
:1021B000D00200202DE9F041594D5A4E5A4C4FF0B3
:1021C00000085A4F00F0E8FF2088401C80B22080B1
:1021D000312802D900202080A070A078012822D1C7
:1021E0003868A0607868E06038892082607F0128C4
:1021F0001ABF012060774FF001087888B98840EA5B
:10220000012081B2F88804280DDA012808BFA5F85A
:10221000DC1008D0022808BFC5F8C81003D0032876
:1022200008BFA5F8FA10D5F8B40081B204F1F8009F
:10223000FFF754FD3E4840F2E732017804F1B00068
:10224000FFF762FD3B4840F2E732017804F1C80035
:10225000FFF75AFD96F8A21040F2E73204F1E000D1
:10226000FFF752FDD5F8B40040F2E73281B204F135
:10227000F800FFF749FDB5F8701040F2E73204F5B9
:102280008870FFF741FD726E40F2E73304F5AC71E0
:1022900004F5A070FFF7E6FCF26E40F2E73304F5B8
:1022A000C47104F5B870FFF7DDFC317840F2E73215
:1022B00004F5E870FFF728FD1F4840F2E732018877
:1022C00004F51270FFF720FD1C4840F2E732018848
:1022D00004F51870FFF718FD194840F2E73201883D
:1022E00004F51E70FFF710FD164840F2E732018832
:1022F00004F52470FFF708FDA078002804BF1248F9
:10230000FFF722FFB8F1000FD5F8B40014BF40F476
:10231000805020F48050C5F8B400BDE8F081000082
:102320005000002018020020D00200207805002074
:10233000000000200200002006000020080000200D
:102340000A0000200C00002000380140374882B00D
:10235000016841F4700101603548016841F00101F4
:1023600001604168334A11404160016821F4102145
:1023700021F080710160016821F4802101604168D1
:1023800021F4FE014160C16A21F00F01C162016BBD
:10239000294A114001630022826000920192016883
:1023A00041F480310160016801F40031019100992C
:1023B000491C0091019919B90099B1F5A04FF2D1CA
:1023C000016811F4003F08BF019229D001211B4A86
:1023D000019112211160416841604168416041688A
:1023E00041F480614160416821F47C1141604168A1
:1023F00041F4E8114160016841F0807101600168B9
:1024000011F0007FFBD0416821F003014160416879
:1024100041F002014160416801F00C010829FAD144
:1024200007494FF00060086002B0704788ED00E097
:10243000001002400CC07FF8CCFC00FF00200240DE
:1024400008ED00E030B4D0F820C04FF6EF740CEA8D
:10245000040CC0F820C08469D0F820C024F4734470
:1024600044EA033343EA02224FF6FF7505EA0111FD
:102470004FF65F730CEA030341F0100119438261C8
:10248000016230BC7047000070B5194D022128462A
:1024900000F0AFF8174C01280BD1284600F0A3F844
:1024A00060600221284600F064F80221284600F00E
:1024B00064F80421284600F09CF8012818BF70BD7C
:1024C000284600F092F8A06061688842A0EB010005
:1024D0009CBF41F65731084404212060284600F093
:1024E00048F82846BDE87040042100F046B80000D6
:1024F000002C01404000002070B5114CFEF726FB77
:1025000000F078FD0F4E0121304600F036F83046DD
:1025100000F06DF80C4D2880304600F068F880B26D
:1025200068802988884298BFC0F5166081B2074844
:10253000018004F50670BDE87040FFF7CFBB0000D6
:10254000D0020020003401404C0000200400002094
:102550000A884B88B1F806C01A438B8843EA0C03FB
:102560001A430B891A434B8989891A4311434164E1
:102570007047C94389B201617047C94389B201619B
:1025800070470029018814BF41F0010121F00101C9
:10259000018070470029416C14BF41F40041C1F330
:1025A0000E0141647047002AC26811BF1143C9433C
:1025B00089B21140C1607047826922F0700222F432
:1025C0008032114381617047826922F4E04222F037
:1025D000807242EA012181617047C26922F0700273
:1025E0001143C1617047406B7047806B7047406A10
:1025F00070470246002012690A4218BF0120704746
:1026000070B50D46044608884988AA882B8958B3B6
:10261000042845D00828206A4FF6FF7C4DD04EF69E
:10262000FF7630402062E06986B2206A26F4734665
:102630000CEA022232430CEA033380B21A430CEA5A
:10264000013120F42040084340F48050E2612062D0
:10265000E888E1694FF2FF321140E161E1690CEA7B
:1026600000200843E06170BD206A20F00100206274
:10267000D4F818C0206A2CF0F30C42EA031220F0C0
:102680000A0042EA0C02084340F00100A261206205
:10269000E888A16921F00C01A161A16908430AE061
:1026A0002046FFF7CFFEE888A16921F44061A161CF
:1026B000A16941EA0020A06170BD4FF6FF6630407D
:1026C0002062E06986B2206A0CEA031326F0F30662
:1026D0001A4380B232430CEA012120F420600843FF
:1026E00040F48070E2612062E888E1694FF6F3729D
:1026F0001140E161E1690843E06170BD002AC268F0
:1027000011BF1143C94389B21140C160704710B471
:10271000026A22F001020262026A4368D0F818C01D
:102720000C682CF0730C2CF4803C44EA0C0C8C8963
:1027300022F0020222438C882243A0F18044B4F5A7
:1027400096341CBFA0F18044B4F59A340DD0A0F1AA
:102750008044B4F5A0341FBFA0F18044B4F5A23486
:10276000A0F18044B4F5A4340DD1CC8922F0080244
:102770002243CC8822F0040222430C8A23F44073C3
:1027800023434C8A23434360C0F818C089684163DF
:10279000026210BC7047826922F008021143816115
:1027A000704710B4026A22F010020262026A4368A3
:1027B000D0F818C00C682CF4E64C2CF0807C4CEA65
:1027C000042C8C8922F0200242EA04128C8842EA0E
:1027D0000412A0F18044B4F596341CBFA0F18044EB
:1027E000B4F59A3411D1CC8922F0800242EA041265
:1027F000CC8822F0400242EA04120C8A23F440639F
:1028000043EA84034C8A43EA84034360C0F818C057
:1028100089688163026210BC7047826922F4006299
:1028200042EA01218161704710B4026A22F4807289
:102830000262026A4368D0F81CC00C682CF0730C6A
:1028400044EA0C0C8C8922F4007242EA04228C883F
:1028500042EA0422A0F18044B4F596341CBFA0F1F2
:102860008044B4F59A3411D1CC8922F4006242EA52
:102870000422CC8822F4806242EA04220C8A23F4E7
:10288000405343EA04134C8A43EA04134360C0F8FC
:102890001CC08968C163026210BC7047C26922F023
:1028A00008021143C161704710B4026A22F4801219
:1028B0000262036A4268D0F854C00C682CF4E04C01
:1028C0004CEA042C8C8923F4001343EA04538C88CB
:1028D00043EA0453A0F18044B4F596341ABFA0F142
:1028E0008044B4F59A3422F400324260C0F854C0F7
:1028F0008968C165036210BC7047426D22F40062B2
:1029000042EA0121416570472DE9F0410D464988B1
:10291000002701260446002908BF0227AA88012AA9
:1029200008BF022628882B8940B32046FFF78AFD7E
:10293000E888A16921F44061A161A16941EA002010
:10294000A0612889216A21F001012162A269216A1E
:1029500022F0F30246EA0010104321F00A01394345
:1029600041F00101A0612162E888A16921F00C0118
:10297000A161A1690843A061BDE8F081206A20F04F
:1029800001002062D4F818C0206A2CF0F30C42EA4F
:10299000031220F00A0042EA0C02084340F0010052
:1029A000A2612062E888A16921F00C01A161A169FE
:1029B0000843A0612B89324639462046FFF742FD85
:1029C000E888A16921F44061A161A16941EA002080
:1029D000D1E70029416812BF41F008014FF6F772B4
:1029E000114041607047426822F4700242604268C0
:1029F0001143416070474163704781637047C16311
:102A00007047C1657047000030B40288244BDFF87E
:102A100094C0254C984218BF60450ED0B0F1804F4D
:102A20001CBFA0F18045B5F5806506D0A0F18045BA
:102A3000B5F5006518BFA04203D14D8822F07002A1
:102A40002A43A0F18045B5F580551CBFA0F1804513
:102A5000B5F5A05503D00D8922F440722A430280B7
:102A60004A68C2620A880285984218BF604510D041
:102A7000A0F18042B2F5A0321CBFA0F18042B2F5B5
:102A8000A23206D0A0F18042B2F5A43218BFA04213
:102A900001D1498901860121416130BC70470000A4
:102AA000002C014000340140005001402DE9F0416C
:102AB0000E460546012188B01F469046C802FEF723
:102AC00037FE01214804FEF71BFE02238DF81C305F
:102AD00003208DF81D000024DB018DF81F4006A99E
:102AE0004FF090400693FEF7EDFC062208214FF0D0
:102AF0009040FEF730FD0495104DADF80C60ADF838
:102B00000E80ADF8144003A92846FFF77DFF0F2182
:102B1000ADF80810ADF806400121ADF80040ADF861
:102B20000410ADF8027069462846FFF7EDFE01215A
:102B30002846FFF726FD08B0BDE8F081002C0140D3
:102B40002DE9F0470E46054601218AB09946174601
:102B50000846FEF7E1FD01214804FEF7D1FD012101
:102B60008804FEF7CDFD02208DF8140003208DF8B7
:102B700015004FF40040002404908DF8174004A97C
:102B80004FF09040FEF79EFC4FF48060DFF8CCA041
:102B9000049004A95046FEF795FC4FF0080804A9DC
:102BA0004FF09040CDF81080FEF78CFC01220F21F1
:102BB0004FF09040FEF7CFFC01220A215046FEF76D
:102BC000CAFC012203214FF09040FEF7C4FCADF88F
:102BD00018600795ADF81A70ADF8204006A94FF0BF
:102BE0008040FFF711FF0F20ADF80800ADF8064058
:102BF0000120ADF80290ADF80400ADF80040694640
:102C00008007FFF7FDFCADF8008069464FF080407B
:102C1000FFF7F6FC0C20ADF8000069464FF080404D
:102C2000FFF7EEFC012251024805FFF7BCFC012230
:102C3000D102C804FFF7B7FC012211038804FFF793
:102C4000B2FC00214FF08040FFF7C3FE012188074E
:102C5000FFF797FC0AB0BDE8F087000000040048C9
:102C60002DE9F04F8FB08846DDE9185683460121E3
:102C70009A4617464803FEF75BFD01214804FEF71C
:102C80003FFD02208DF81C0003208DF81D00402020
:102C9000002406908DF81E4006A95648FEF712FC47
:102CA0004FF4807906A95348CDF81890FEF70AFC36
:102CB0004FF40070069006A94E48FEF703FC08206A
:102CC000069006A94B48FEF7FDFB1020069006A9CA
:102CD0004848FEF7F7FB2020069006A94548FEF776
:102CE000F1FB052206214348FEF735FC0A220821A4
:102CF0004048FEF730FC0A2209213E48FEF72BFC33
:102D0000042203213B48FEF726FC042211463948E1
:102D1000FEF721FC032205213648FEF71CFCADF826
:102D20003080ADF83270DFF8D080ADF83840012740
:102D3000CDF834B0ADF83A700CA94046FFF764FE08
:102D400060200090ADF804700420ADF80600ADF8E6
:102D50000CA0ADF81090ADF80E50ADF812406946D9
:102D60004046FFF7D4FC69464046FFF71AFD694626
:102D70004046FFF759FD08214046FFF70CFD0821AA
:102D80004046FFF74AFD08214046FFF787FDF8025D
:102D9000ADF820004010ADF82200ADF82440ADF8A9
:102DA0002840ADF82660ADF82A40ADF82C4008A9BF
:102DB0004046FFF7CDFB114908684FF6AA221040A4
:102DC000086069464046FFF76FFD08214046FFF75F
:102DD00094FD4FF470014046FFF705FE0121404687
:102DE000FFF7CFFB01214046FFF7D4FB0FB0BDE852
:102DF000F08F0000000400480034014020340140FE
:102E00000148FFF76DB900000038014070B5054674
:102E1000012188B08803FEF78BFC01214804FEF7EE
:102E20006FFC4FF40071069103218DF81D100226EE
:102E30008DF81C6000248DF81E4006A94FF09040CC
:102E4000FEF740FB710206918DF81C6006A94FF059
:102E50009040FEF737FB09210722C806FEF77BFBEF
:102E600007220A214FF09040FEF775FBCDE9005490
:102E70000C20CDE9040402940394054C69462046D5
:102E800000F052F80121204600F00AF808B070BDA9
:102E900000380140090C012202FA01F10162704779
:102EA0000029016814BF41F0010121F00101016016
:102EB000704702460020D2690A4218BF01207047BD
:102EC00010B40124C1F3072304FA01F24FF0000CFF
:102ED000012B04BF03681A4004D0022B0CBF4368C7
:102EE00083681A40090CC06904FA01F10840002AFD
:102EF0001CBF00284FF0010C604610BC7047C1F3A6
:102F000007234FF0010C0CFA01F1022B08BF001D42
:102F100002D0032B08BF0830002A026814BF1143F7
:102F200022EA01010160704730B50446006897B09D
:102F30000D4620F0010020606068896820F4405050
:102F4000084360602068EA68696820F403701143F0
:102F50002A6920F4A050104308432060A0686969E2
:102F600020F440700843A0606846FEF747FCA4F1D7
:102F70008040B0F59C3008BF0E9914D0A4F1804079
:102F8000B0F5884008BF0F990DD0A4F18040B0F58E
:102F9000904008BF109906D0A4F18040B0F5984049
:102FA0000CBF11991299206810F4004F18BF490006
:102FB0002A68B1FBF2F0B1FBF2F302FB1311B1EBA3
:102FC000520F216840F1000011F4004F05D0C0F30A
:102FD00042014FF6F07210400843A08117B030BD97
:102FE000808CC0F308007047C1F308010185704769
:102FF000FEE7000070B5164E134C144D30780928CA
:1030000013D2DFE800F014140505050509090900CD
:10301000B4F8FA00A4F8F40000F0F8F9FDF734FD74
:10302000B4F8FE0000F04EFA01E000203070094CC8
:1030300020783178884204D0317805F1C800FEF755
:103040004DFE3078207070BD50000020D00200206E
:10305000020000200300002000EBC000C1004FF080
:10306000E02041610021816105210161016911F4C4
:10307000803FFBD0042101617047000082B03C4DCD
:103080000024FEF761FB4FF4E130FFF7BFFEFEF7CF
:1030900063FEFEF72DFFFEF777FAFEF73BF9FEF72A
:1030A0009FF9FDF775F902230022182141F65730E8
:1030B000FFF7FCFC00220A2311466FF06040FFF787
:1030C0003FFD00268F20CDE90060334620223146A7
:1030D00040F2AF40FFF7C4FD264F4FF496713846DB
:1030E000FFF78FFC05F110012348FDF76BFC05F19C
:1030F00014012248FDF716FC05F118012048FDF7E0
:1031000039FCFEF79FF84FF4A060FEF7EDFAFEF7EA
:103110009FFAFEF78DFAFEF77AFAFEF768FA0122B7
:1031200018491948FFF7EBFE012211463846FFF710
:10313000E5FA164D012202212846FFF7DFFA0122A7
:1031400004212846FFF7DAFA4FF0E02010494161E8
:10315000104AF02182F8141D86610721016141F2B5
:103160006F70611C8CB2844288BF40F2CF74F8E764
:103170001802002000340140400000403C000040A4
:10318000340000400501050000380140002C0140DA
:103190003F1901000FE000E02DE9F04161495E4C6C
:1031A0005E485F4D09780A2978D2DFE801F005967C
:1031B000205F96687878788600F0BEF8B4F8DC0076
:1031C000A0F5AA41553904BFD4F8B40010F0020F9D
:1031D0004BD1FEF79FF80820A4F8FE0051490220C9
:1031E0000870514908700020C4F8B40075E0B4F8C4
:1031F000241141F2707291426FD30026A4F8246129
:10320000406E4A4981420BD200F0D2F8464806701F
:10321000444909200870D4F8B40040F4006022E06A
:1032200094F8A60040B194F8A600012811D094F8B3
:10323000A600022808D00CE0FEF726F93A49032040
:1032400008703849087004E037490520087035498E
:103250000870D4F8B40020F40070C4F8B400D4F8B6
:10326000B40040F00400C4F8B40036E0FEF7C4F83F
:10327000B4F8DC00A0F5AA4155392ED005E0B4F829
:10328000DC00A0F5AA41553927D00020A4F8F400AD
:10329000254908200870234908701EE01AE000261E
:1032A000A4F8F460406E2249884216D900F080F8F4
:1032B0001D4806701B4806700FE0B4F8DC00A0F54E
:1032C000CC41663918494FF0000004BF0870154919
:1032D000087002E0134900200870164F3878114E2C
:1032E0003178884204D0317805F1B000FEF7F6FC61
:1032F000B4F80001B4F8FE10884205D0B4F8FE100E
:1033000005F59470FEF7EAFC30783870B4F8FE00EA
:10331000A4F80001BDE8F081500000201802002050
:10332000D002002000000020020000208EF29C004D
:10333000A69D02000100002070B51B4C002584F8FA
:10334000A65000F035F8A4F82451A4F8A8514FF67F
:10335000FF70C4F8BC0025604FF42020A0622062FA
:10336000A4F8FE50A4F80251A4F80451A4F80651A0
:10337000D4F8B40020F40070C4F8B400D4F8B40059
:1033800020F00400C4F8B400D4F8B40020F0010028
:10339000C4F8B400D4F8B40020F48060C4F8B400D9
:1033A0000248057070BD000050000020020000209F
:1033B00070B5144D124C00212846FFF71CFB00216C
:1033C0002846FFF71AFB00212846FFF718FB40218B
:1033D0002846FFF7F1F840212846FFF7F5F840218D
:1033E0002846FFF7FAF8084801684FF6AA2211406C
:1033F0000160D4F8B40020F00400C4F8B40070BD3B
:103400005000002000340140203401402B48D0F807
:10341000B41021F00401C0F8B410D0F8B41041F495
:103420008061C0F8B4102649097800230829B0F853
:10343000FC1017D04A1CA0F8FC20B0F8F6209142EE
:1034400098BF7047B0F8F410A0F8F810B0F8FE106C
:10345000B0F8F8208A4229D9B0F8FE10491CA0F82B
:10346000FE1020E08A00491CA0F8FC10B0F8F6100D
:103470008A4298BF7047B0F8F410A0F8F810B0F87E
:10348000FE10B0F8F8208A42E6D8B0F8FE10B0F886
:10349000F820914203D9B0F8FE10491E01E0B0F8BF
:1034A000F810A0F8FE10A0F8FC307047B0F8FE103D
:1034B000B0F8F8209142F2D9EDE70000500000206A
:1034C0000200002070B5084C054601462046FFF773
:1034D00092FA29462046FFF790FA29462046BDE891
:1034E0007040FFF78CBA0000003401404FF040708C
:1034F000E1EE100A7047000604050201030700020E
:10350000030405060107000028350008000000201C
:1035100050000000C4010008783500085000002069
:10352000980B0000E001000800000000000000000F
:10353000000000000000000000000102030401027E
:103540000304060708090100020004000600080041
:103550000A000C0010002000400080000001000064
:10356000000000000000000000000000000000005B
:08357000000000000000000053
:040000050800018965
:00000001FF
